{
  "transactions": [
    {
      "hash": "0x4228c5e953ba11b9cabbcfbcf46bfefb263c3f17faf8b4fb2bfe27fa92b41f3a",
      "transactionType": "CALL",
      "contractName": null,
      "contractAddress": "0x0000000000006396ff2a80c067f99b3d2ab4df24",
      "function": "deployDeterministicAndCall(address,address,bytes32,bytes)",
      "arguments": [
        "0x115207b091Ea8ec2919C7F1368c6e1E5D1CC7207",
        "0x1821BD18CBdD267CE4e389f893dDFe7BEB333aB6",
        "0x000000000000000000000000000000000000000000000000000000000004dc28",
        "0x8129fc1c"
      ],
      "transaction": {
        "from": "0x1821bd18cbdd267ce4e389f893ddfe7beb333ab6",
        "to": "0x0000000000006396ff2a80c067f99b3d2ab4df24",
        "gas": "0x335f4",
        "value": "0x0",
        "input": "0xa97b90d5000000000000000000000000115207b091ea8ec2919c7f1368c6e1e5d1cc72070000000000000000000000001821bd18cbdd267ce4e389f893ddfe7beb333ab6000000000000000000000000000000000000000000000000000000000004dc28000000000000000000000000000000000000000000000000000000000000008000000000000000000000000000000000000000000000000000000000000000048129fc1c00000000000000000000000000000000000000000000000000000000",
        "nonce": "0x2",
        "chainId": "0xaa36a7"
      },
      "additionalContracts": [
        {
          "transactionType": "CREATE2",
          "address": "0x011528b1d5822b3269d919e38872cc33bdec6d17",
          "initCode": "0x60793d8160093d39f33d3d336d6396ff2a80c067f99b3d2ab4df2414605157363d3d37363d7f360894a13ba1a3210667c828492db98dca3e2076cc3735a920a3ca505d382bbc545af43d6000803e604c573d6000fd5b3d6000f35b3d3560203555604080361115604c5736038060403d373d3d355af43d6000803e604c573d6000fd00000000000000"
        }
      ],
      "isFixedGasLimit": false
    }
  ],
  "receipts": [
    {
      "status": "0x1",
      "cumulativeGasUsed": "0x1512165",
      "logs": [
        {
          "address": "0x011528b1d5822b3269d919e38872cc33bdec6d17",
          "topics": [
            "0xc7f505b2f371ae2175ee4913f4499e1f2633a7b5936321eed1cdaeb6115181d2"
          ],
          "data": "0x0000000000000000000000000000000000000000000000000000000000000001",
          "blockHash": "0xf31973c84d12590363d9061dbd779b929eb065513c1ddc5bf43bbca390aa49b7",
          "blockNumber": "0x83108d",
          "blockTimestamp": "0x68553a2c",
          "transactionHash": "0x4228c5e953ba11b9cabbcfbcf46bfefb263c3f17faf8b4fb2bfe27fa92b41f3a",
          "transactionIndex": "0x8d",
          "logIndex": "0xd5",
          "removed": false
        },
        {
          "address": "0x0000000000006396ff2a80c067f99b3d2ab4df24",
          "topics": [
            "0xc95935a66d15e0da5e412aca0ad27ae891d20b2fb91cf3994b6a3bf2b8178082",
            "0x000000000000000000000000011528b1d5822b3269d919e38872cc33bdec6d17",
            "0x000000000000000000000000115207b091ea8ec2919c7f1368c6e1e5d1cc7207",
            "0x0000000000000000000000001821bd18cbdd267ce4e389f893ddfe7beb333ab6"
          ],
          "data": "0x",
          "blockHash": "0xf31973c84d12590363d9061dbd779b929eb065513c1ddc5bf43bbca390aa49b7",
          "blockNumber": "0x83108d",
          "blockTimestamp": "0x68553a2c",
          "transactionHash": "0x4228c5e953ba11b9cabbcfbcf46bfefb263c3f17faf8b4fb2bfe27fa92b41f3a",
          "transactionIndex": "0x8d",
          "logIndex": "0xd6",
          "removed": false
        }
      ],
      "logsBloom": "0x00000000000100000000000100000000000000000000800000000000000000000400000000000000000000000000000000000000000000000000000000000000000000000010000000000000000000000000000000000000000000000000020000000000000000020000000800000000200000008000000000000020000000000000800000000000000800000000100000000008000080000000000000000000000000000000000000000000000100000000000000000000000000000000000000800000000000000000400000000000000000000004000000000000000000000000000000000000000000000000000000000000000000000000080000000000",
      "type": "0x2",
      "transactionHash": "0x4228c5e953ba11b9cabbcfbcf46bfefb263c3f17faf8b4fb2bfe27fa92b41f3a",
      "transactionIndex": "0x8d",
      "blockHash": "0xf31973c84d12590363d9061dbd779b929eb065513c1ddc5bf43bbca390aa49b7",
      "blockNumber": "0x83108d",
      "gasUsed": "0x2531f",
      "effectiveGasPrice": "0x15b766e",
      "from": "0x1821bd18cbdd267ce4e389f893ddfe7beb333ab6",
      "to": "0x0000000000006396ff2a80c067f99b3d2ab4df24",
      "contractAddress": null
    }
  ],
  "libraries": [],
  "pending": [],
  "returns": {},
  "timestamp": 1750415918,
  "chain": 11155111,
  "commit": "3f6d30d"
}